{
  "_format": "hh-sol-artifact-1",
  "contractName": "FlowERC721",
  "sourceName": "contracts/flow/erc721/FlowERC721.sol",
  "abi": [
    {
      "inputs": [
        {
          "components": [
            {
              "internalType": "address",
              "name": "deployer",
              "type": "address"
            },
            {
              "internalType": "bytes",
              "name": "meta",
              "type": "bytes"
            }
          ],
          "internalType": "struct DeployerDiscoverableMetaV1ConstructionConfig",
          "name": "config_",
          "type": "tuple"
        }
      ],
      "stateMutability": "nonpayable",
      "type": "constructor"
    },
    {
      "inputs": [
        {
          "internalType": "uint256",
          "name": "flowMinOutputs_",
          "type": "uint256"
        }
      ],
      "name": "BadMinStackLength",
      "type": "error"
    },
    {
      "inputs": [],
      "name": "BurnerNotOwner",
      "type": "error"
    },
    {
      "inputs": [
        {
          "internalType": "uint256",
          "name": "i",
          "type": "uint256"
        }
      ],
      "name": "InvalidSignature",
      "type": "error"
    },
    {
      "inputs": [
        {
          "internalType": "bytes",
          "name": "unmeta",
          "type": "bytes"
        }
      ],
      "name": "NotRainMetaV1",
      "type": "error"
    },
    {
      "inputs": [
        {
          "internalType": "bytes32",
          "name": "expectedHash",
          "type": "bytes32"
        },
        {
          "internalType": "bytes32",
          "name": "actualHash",
          "type": "bytes32"
        }
      ],
      "name": "UnexpectedMetaHash",
      "type": "error"
    },
    {
      "inputs": [
        {
          "internalType": "bytes32",
          "name": "unregisteredHash",
          "type": "bytes32"
        }
      ],
      "name": "UnregisteredFlow",
      "type": "error"
    },
    {
      "inputs": [],
      "name": "UnsupportedERC1155Flow",
      "type": "error"
    },
    {
      "inputs": [],
      "name": "UnsupportedERC20Flow",
      "type": "error"
    },
    {
      "inputs": [],
      "name": "UnsupportedERC721Flow",
      "type": "error"
    },
    {
      "inputs": [],
      "name": "UnsupportedNativeFlow",
      "type": "error"
    },
    {
      "anonymous": false,
      "inputs": [
        {
          "indexed": true,
          "internalType": "address",
          "name": "owner",
          "type": "address"
        },
        {
          "indexed": true,
          "internalType": "address",
          "name": "approved",
          "type": "address"
        },
        {
          "indexed": true,
          "internalType": "uint256",
          "name": "tokenId",
          "type": "uint256"
        }
      ],
      "name": "Approval",
      "type": "event"
    },
    {
      "anonymous": false,
      "inputs": [
        {
          "indexed": true,
          "internalType": "address",
          "name": "owner",
          "type": "address"
        },
        {
          "indexed": true,
          "internalType": "address",
          "name": "operator",
          "type": "address"
        },
        {
          "indexed": false,
          "internalType": "bool",
          "name": "approved",
          "type": "bool"
        }
      ],
      "name": "ApprovalForAll",
      "type": "event"
    },
    {
      "anonymous": false,
      "inputs": [
        {
          "indexed": false,
          "internalType": "address",
          "name": "sender",
          "type": "address"
        },
        {
          "indexed": false,
          "internalType": "uint256[][]",
          "name": "context",
          "type": "uint256[][]"
        }
      ],
      "name": "Context",
      "type": "event"
    },
    {
      "anonymous": false,
      "inputs": [
        {
          "indexed": false,
          "internalType": "address",
          "name": "sender",
          "type": "address"
        },
        {
          "components": [
            {
              "internalType": "contract IInterpreterV1",
              "name": "interpreter",
              "type": "address"
            },
            {
              "internalType": "contract IInterpreterStoreV1",
              "name": "store",
              "type": "address"
            },
            {
              "internalType": "address",
              "name": "expression",
              "type": "address"
            }
          ],
          "indexed": false,
          "internalType": "struct Evaluable",
          "name": "evaluable",
          "type": "tuple"
        }
      ],
      "name": "FlowInitialized",
      "type": "event"
    },
    {
      "anonymous": false,
      "inputs": [
        {
          "indexed": false,
          "internalType": "address",
          "name": "sender",
          "type": "address"
        },
        {
          "components": [
            {
              "internalType": "string",
              "name": "name",
              "type": "string"
            },
            {
              "internalType": "string",
              "name": "symbol",
              "type": "string"
            },
            {
              "internalType": "string",
              "name": "baseURI",
              "type": "string"
            },
            {
              "components": [
                {
                  "internalType": "contract IExpressionDeployerV1",
                  "name": "deployer",
                  "type": "address"
                },
                {
                  "internalType": "bytes[]",
                  "name": "sources",
                  "type": "bytes[]"
                },
                {
                  "internalType": "uint256[]",
                  "name": "constants",
                  "type": "uint256[]"
                }
              ],
              "internalType": "struct EvaluableConfig",
              "name": "evaluableConfig",
              "type": "tuple"
            },
            {
              "components": [
                {
                  "internalType": "contract IExpressionDeployerV1",
                  "name": "deployer",
                  "type": "address"
                },
                {
                  "internalType": "bytes[]",
                  "name": "sources",
                  "type": "bytes[]"
                },
                {
                  "internalType": "uint256[]",
                  "name": "constants",
                  "type": "uint256[]"
                }
              ],
              "internalType": "struct EvaluableConfig[]",
              "name": "flowConfig",
              "type": "tuple[]"
            }
          ],
          "indexed": false,
          "internalType": "struct FlowERC721Config",
          "name": "config",
          "type": "tuple"
        }
      ],
      "name": "Initialize",
      "type": "event"
    },
    {
      "anonymous": false,
      "inputs": [
        {
          "indexed": false,
          "internalType": "uint8",
          "name": "version",
          "type": "uint8"
        }
      ],
      "name": "Initialized",
      "type": "event"
    },
    {
      "anonymous": false,
      "inputs": [
        {
          "indexed": false,
          "internalType": "address",
          "name": "sender",
          "type": "address"
        },
        {
          "indexed": false,
          "internalType": "uint256",
          "name": "subject",
          "type": "uint256"
        },
        {
          "indexed": false,
          "internalType": "bytes",
          "name": "meta",
          "type": "bytes"
        }
      ],
      "name": "MetaV1",
      "type": "event"
    },
    {
      "anonymous": false,
      "inputs": [
        {
          "indexed": true,
          "internalType": "address",
          "name": "from",
          "type": "address"
        },
        {
          "indexed": true,
          "internalType": "address",
          "name": "to",
          "type": "address"
        },
        {
          "indexed": true,
          "internalType": "uint256",
          "name": "tokenId",
          "type": "uint256"
        }
      ],
      "name": "Transfer",
      "type": "event"
    },
    {
      "inputs": [
        {
          "internalType": "address",
          "name": "to",
          "type": "address"
        },
        {
          "internalType": "uint256",
          "name": "tokenId",
          "type": "uint256"
        }
      ],
      "name": "approve",
      "outputs": [],
      "stateMutability": "nonpayable",
      "type": "function"
    },
    {
      "inputs": [
        {
          "internalType": "address",
          "name": "owner",
          "type": "address"
        }
      ],
      "name": "balanceOf",
      "outputs": [
        {
          "internalType": "uint256",
          "name": "",
          "type": "uint256"
        }
      ],
      "stateMutability": "view",
      "type": "function"
    },
    {
      "inputs": [
        {
          "components": [
            {
              "internalType": "contract IInterpreterV1",
              "name": "interpreter",
              "type": "address"
            },
            {
              "internalType": "contract IInterpreterStoreV1",
              "name": "store",
              "type": "address"
            },
            {
              "internalType": "address",
              "name": "expression",
              "type": "address"
            }
          ],
          "internalType": "struct Evaluable",
          "name": "evaluable_",
          "type": "tuple"
        },
        {
          "internalType": "uint256[]",
          "name": "callerContext_",
          "type": "uint256[]"
        },
        {
          "components": [
            {
              "internalType": "address",
              "name": "signer",
              "type": "address"
            },
            {
              "internalType": "bytes",
              "name": "signature",
              "type": "bytes"
            },
            {
              "internalType": "uint256[]",
              "name": "context",
              "type": "uint256[]"
            }
          ],
          "internalType": "struct SignedContext[]",
          "name": "signedContexts_",
          "type": "tuple[]"
        }
      ],
      "name": "flow",
      "outputs": [
        {
          "components": [
            {
              "components": [
                {
                  "internalType": "address",
                  "name": "account",
                  "type": "address"
                },
                {
                  "internalType": "uint256",
                  "name": "id",
                  "type": "uint256"
                }
              ],
              "internalType": "struct ERC721SupplyChange[]",
              "name": "mints",
              "type": "tuple[]"
            },
            {
              "components": [
                {
                  "internalType": "address",
                  "name": "account",
                  "type": "address"
                },
                {
                  "internalType": "uint256",
                  "name": "id",
                  "type": "uint256"
                }
              ],
              "internalType": "struct ERC721SupplyChange[]",
              "name": "burns",
              "type": "tuple[]"
            },
            {
              "components": [
                {
                  "components": [
                    {
                      "internalType": "address",
                      "name": "from",
                      "type": "address"
                    },
                    {
                      "internalType": "address",
                      "name": "to",
                      "type": "address"
                    },
                    {
                      "internalType": "uint256",
                      "name": "amount",
                      "type": "uint256"
                    }
                  ],
                  "internalType": "struct NativeTransfer[]",
                  "name": "native",
                  "type": "tuple[]"
                },
                {
                  "components": [
                    {
                      "internalType": "address",
                      "name": "token",
                      "type": "address"
                    },
                    {
                      "internalType": "address",
                      "name": "from",
                      "type": "address"
                    },
                    {
                      "internalType": "address",
                      "name": "to",
                      "type": "address"
                    },
                    {
                      "internalType": "uint256",
                      "name": "amount",
                      "type": "uint256"
                    }
                  ],
                  "internalType": "struct ERC20Transfer[]",
                  "name": "erc20",
                  "type": "tuple[]"
                },
                {
                  "components": [
                    {
                      "internalType": "address",
                      "name": "token",
                      "type": "address"
                    },
                    {
                      "internalType": "address",
                      "name": "from",
                      "type": "address"
                    },
                    {
                      "internalType": "address",
                      "name": "to",
                      "type": "address"
                    },
                    {
                      "internalType": "uint256",
                      "name": "id",
                      "type": "uint256"
                    }
                  ],
                  "internalType": "struct ERC721Transfer[]",
                  "name": "erc721",
                  "type": "tuple[]"
                },
                {
                  "components": [
                    {
                      "internalType": "address",
                      "name": "token",
                      "type": "address"
                    },
                    {
                      "internalType": "address",
                      "name": "from",
                      "type": "address"
                    },
                    {
                      "internalType": "address",
                      "name": "to",
                      "type": "address"
                    },
                    {
                      "internalType": "uint256",
                      "name": "id",
                      "type": "uint256"
                    },
                    {
                      "internalType": "uint256",
                      "name": "amount",
                      "type": "uint256"
                    }
                  ],
                  "internalType": "struct ERC1155Transfer[]",
                  "name": "erc1155",
                  "type": "tuple[]"
                }
              ],
              "internalType": "struct FlowTransfer",
              "name": "flow",
              "type": "tuple"
            }
          ],
          "internalType": "struct FlowERC721IO",
          "name": "",
          "type": "tuple"
        }
      ],
      "stateMutability": "payable",
      "type": "function"
    },
    {
      "inputs": [
        {
          "internalType": "uint256",
          "name": "tokenId",
          "type": "uint256"
        }
      ],
      "name": "getApproved",
      "outputs": [
        {
          "internalType": "address",
          "name": "",
          "type": "address"
        }
      ],
      "stateMutability": "view",
      "type": "function"
    },
    {
      "inputs": [
        {
          "internalType": "bytes",
          "name": "data_",
          "type": "bytes"
        }
      ],
      "name": "initialize",
      "outputs": [],
      "stateMutability": "nonpayable",
      "type": "function"
    },
    {
      "inputs": [
        {
          "internalType": "address",
          "name": "owner",
          "type": "address"
        },
        {
          "internalType": "address",
          "name": "operator",
          "type": "address"
        }
      ],
      "name": "isApprovedForAll",
      "outputs": [
        {
          "internalType": "bool",
          "name": "",
          "type": "bool"
        }
      ],
      "stateMutability": "view",
      "type": "function"
    },
    {
      "inputs": [
        {
          "internalType": "bytes[]",
          "name": "data",
          "type": "bytes[]"
        }
      ],
      "name": "multicall",
      "outputs": [
        {
          "internalType": "bytes[]",
          "name": "results",
          "type": "bytes[]"
        }
      ],
      "stateMutability": "nonpayable",
      "type": "function"
    },
    {
      "inputs": [],
      "name": "name",
      "outputs": [
        {
          "internalType": "string",
          "name": "",
          "type": "string"
        }
      ],
      "stateMutability": "view",
      "type": "function"
    },
    {
      "inputs": [
        {
          "internalType": "address",
          "name": "",
          "type": "address"
        },
        {
          "internalType": "address",
          "name": "",
          "type": "address"
        },
        {
          "internalType": "uint256[]",
          "name": "",
          "type": "uint256[]"
        },
        {
          "internalType": "uint256[]",
          "name": "",
          "type": "uint256[]"
        },
        {
          "internalType": "bytes",
          "name": "",
          "type": "bytes"
        }
      ],
      "name": "onERC1155BatchReceived",
      "outputs": [
        {
          "internalType": "bytes4",
          "name": "",
          "type": "bytes4"
        }
      ],
      "stateMutability": "nonpayable",
      "type": "function"
    },
    {
      "inputs": [
        {
          "internalType": "address",
          "name": "",
          "type": "address"
        },
        {
          "internalType": "address",
          "name": "",
          "type": "address"
        },
        {
          "internalType": "uint256",
          "name": "",
          "type": "uint256"
        },
        {
          "internalType": "uint256",
          "name": "",
          "type": "uint256"
        },
        {
          "internalType": "bytes",
          "name": "",
          "type": "bytes"
        }
      ],
      "name": "onERC1155Received",
      "outputs": [
        {
          "internalType": "bytes4",
          "name": "",
          "type": "bytes4"
        }
      ],
      "stateMutability": "nonpayable",
      "type": "function"
    },
    {
      "inputs": [
        {
          "internalType": "address",
          "name": "",
          "type": "address"
        },
        {
          "internalType": "address",
          "name": "",
          "type": "address"
        },
        {
          "internalType": "uint256",
          "name": "",
          "type": "uint256"
        },
        {
          "internalType": "bytes",
          "name": "",
          "type": "bytes"
        }
      ],
      "name": "onERC721Received",
      "outputs": [
        {
          "internalType": "bytes4",
          "name": "",
          "type": "bytes4"
        }
      ],
      "stateMutability": "nonpayable",
      "type": "function"
    },
    {
      "inputs": [
        {
          "internalType": "uint256",
          "name": "tokenId",
          "type": "uint256"
        }
      ],
      "name": "ownerOf",
      "outputs": [
        {
          "internalType": "address",
          "name": "",
          "type": "address"
        }
      ],
      "stateMutability": "view",
      "type": "function"
    },
    {
      "inputs": [
        {
          "components": [
            {
              "internalType": "contract IInterpreterV1",
              "name": "interpreter",
              "type": "address"
            },
            {
              "internalType": "contract IInterpreterStoreV1",
              "name": "store",
              "type": "address"
            },
            {
              "internalType": "address",
              "name": "expression",
              "type": "address"
            }
          ],
          "internalType": "struct Evaluable",
          "name": "evaluable_",
          "type": "tuple"
        },
        {
          "internalType": "uint256[]",
          "name": "callerContext_",
          "type": "uint256[]"
        },
        {
          "components": [
            {
              "internalType": "address",
              "name": "signer",
              "type": "address"
            },
            {
              "internalType": "bytes",
              "name": "signature",
              "type": "bytes"
            },
            {
              "internalType": "uint256[]",
              "name": "context",
              "type": "uint256[]"
            }
          ],
          "internalType": "struct SignedContext[]",
          "name": "signedContexts_",
          "type": "tuple[]"
        }
      ],
      "name": "previewFlow",
      "outputs": [
        {
          "components": [
            {
              "components": [
                {
                  "internalType": "address",
                  "name": "account",
                  "type": "address"
                },
                {
                  "internalType": "uint256",
                  "name": "id",
                  "type": "uint256"
                }
              ],
              "internalType": "struct ERC721SupplyChange[]",
              "name": "mints",
              "type": "tuple[]"
            },
            {
              "components": [
                {
                  "internalType": "address",
                  "name": "account",
                  "type": "address"
                },
                {
                  "internalType": "uint256",
                  "name": "id",
                  "type": "uint256"
                }
              ],
              "internalType": "struct ERC721SupplyChange[]",
              "name": "burns",
              "type": "tuple[]"
            },
            {
              "components": [
                {
                  "components": [
                    {
                      "internalType": "address",
                      "name": "from",
                      "type": "address"
                    },
                    {
                      "internalType": "address",
                      "name": "to",
                      "type": "address"
                    },
                    {
                      "internalType": "uint256",
                      "name": "amount",
                      "type": "uint256"
                    }
                  ],
                  "internalType": "struct NativeTransfer[]",
                  "name": "native",
                  "type": "tuple[]"
                },
                {
                  "components": [
                    {
                      "internalType": "address",
                      "name": "token",
                      "type": "address"
                    },
                    {
                      "internalType": "address",
                      "name": "from",
                      "type": "address"
                    },
                    {
                      "internalType": "address",
                      "name": "to",
                      "type": "address"
                    },
                    {
                      "internalType": "uint256",
                      "name": "amount",
                      "type": "uint256"
                    }
                  ],
                  "internalType": "struct ERC20Transfer[]",
                  "name": "erc20",
                  "type": "tuple[]"
                },
                {
                  "components": [
                    {
                      "internalType": "address",
                      "name": "token",
                      "type": "address"
                    },
                    {
                      "internalType": "address",
                      "name": "from",
                      "type": "address"
                    },
                    {
                      "internalType": "address",
                      "name": "to",
                      "type": "address"
                    },
                    {
                      "internalType": "uint256",
                      "name": "id",
                      "type": "uint256"
                    }
                  ],
                  "internalType": "struct ERC721Transfer[]",
                  "name": "erc721",
                  "type": "tuple[]"
                },
                {
                  "components": [
                    {
                      "internalType": "address",
                      "name": "token",
                      "type": "address"
                    },
                    {
                      "internalType": "address",
                      "name": "from",
                      "type": "address"
                    },
                    {
                      "internalType": "address",
                      "name": "to",
                      "type": "address"
                    },
                    {
                      "internalType": "uint256",
                      "name": "id",
                      "type": "uint256"
                    },
                    {
                      "internalType": "uint256",
                      "name": "amount",
                      "type": "uint256"
                    }
                  ],
                  "internalType": "struct ERC1155Transfer[]",
                  "name": "erc1155",
                  "type": "tuple[]"
                }
              ],
              "internalType": "struct FlowTransfer",
              "name": "flow",
              "type": "tuple"
            }
          ],
          "internalType": "struct FlowERC721IO",
          "name": "",
          "type": "tuple"
        }
      ],
      "stateMutability": "view",
      "type": "function"
    },
    {
      "inputs": [
        {
          "internalType": "address",
          "name": "from",
          "type": "address"
        },
        {
          "internalType": "address",
          "name": "to",
          "type": "address"
        },
        {
          "internalType": "uint256",
          "name": "tokenId",
          "type": "uint256"
        }
      ],
      "name": "safeTransferFrom",
      "outputs": [],
      "stateMutability": "nonpayable",
      "type": "function"
    },
    {
      "inputs": [
        {
          "internalType": "address",
          "name": "from",
          "type": "address"
        },
        {
          "internalType": "address",
          "name": "to",
          "type": "address"
        },
        {
          "internalType": "uint256",
          "name": "tokenId",
          "type": "uint256"
        },
        {
          "internalType": "bytes",
          "name": "data",
          "type": "bytes"
        }
      ],
      "name": "safeTransferFrom",
      "outputs": [],
      "stateMutability": "nonpayable",
      "type": "function"
    },
    {
      "inputs": [
        {
          "internalType": "address",
          "name": "operator",
          "type": "address"
        },
        {
          "internalType": "bool",
          "name": "approved",
          "type": "bool"
        }
      ],
      "name": "setApprovalForAll",
      "outputs": [],
      "stateMutability": "nonpayable",
      "type": "function"
    },
    {
      "inputs": [
        {
          "internalType": "bytes4",
          "name": "interfaceId",
          "type": "bytes4"
        }
      ],
      "name": "supportsInterface",
      "outputs": [
        {
          "internalType": "bool",
          "name": "",
          "type": "bool"
        }
      ],
      "stateMutability": "view",
      "type": "function"
    },
    {
      "inputs": [],
      "name": "symbol",
      "outputs": [
        {
          "internalType": "string",
          "name": "",
          "type": "string"
        }
      ],
      "stateMutability": "view",
      "type": "function"
    },
    {
      "inputs": [
        {
          "internalType": "uint256",
          "name": "tokenId_",
          "type": "uint256"
        }
      ],
      "name": "tokenURI",
      "outputs": [
        {
          "internalType": "string",
          "name": "",
          "type": "string"
        }
      ],
      "stateMutability": "view",
      "type": "function"
    },
    {
      "inputs": [
        {
          "internalType": "address",
          "name": "from",
          "type": "address"
        },
        {
          "internalType": "address",
          "name": "to",
          "type": "address"
        },
        {
          "internalType": "uint256",
          "name": "tokenId",
          "type": "uint256"
        }
      ],
      "name": "transferFrom",
      "outputs": [],
      "stateMutability": "nonpayable",
      "type": "function"
    },
    {
      "stateMutability": "payable",
      "type": "receive"
    }
  ],
  "bytecode": "0x60806040523480156200001157600080fd5b506040516200650c3803806200650c8339810160408190526200003491620003c1565b7f65c93ef964415b7cc6e0331eb19807823856d9114fda90eafd10f5375e843a1d60001b81818162000076828260200151620000e760201b6200119a1760201c565b60208101516040517fbea766d03fa1efd3f81cc8634d08320bc62bb0ed9234ac59bbaafa5893fb6b1391620000af9133913091620004cf565b60405180910390a1620000d181600001516200012e60201b620011ed1760201c565b50620000de9050620001f2565b50505062000641565b805160208201208281146200011e5760405163074fe10f60e41b815260048101849052602481018290526044015b60405180910390fd5b6200012982620002b1565b505050565b604080516000808252602082019092526001600160a01b03831691635511cb6791906200016c565b6060815260200190600190039081620001565790505b5060408051600080825260208201908152818301928390526001600160e01b031960e086901b16909252620001a69291604482016200053e565b6060604051808303816000875af1158015620001c6573d6000803e3d6000fd5b505050506040513d601f19601f82011682018060405250810190620001ec9190620005d1565b50505050565b600054610100900460ff16156200025c5760405162461bcd60e51b815260206004820152602760248201527f496e697469616c697a61626c653a20636f6e747261637420697320696e697469604482015266616c697a696e6760c81b606482015260840162000115565b60005460ff9081161015620002af576000805460ff191660ff9081179091556040519081527f7f26b83ff96e1f2b6a682f133852f6798a09c465da95921460cefb38474024989060200160405180910390a15b565b620002bc81620002e1565b620002de5780604051630c89984b60e31b815260040162000115919062000625565b50565b6000600882511015620002f657506000919050565b50600801516001600160401b031667ff0a89c674ee78741490565b634e487b7160e01b600052604160045260246000fd5b604080519081016001600160401b03811182821017156200034c576200034c62000311565b60405290565b604051601f8201601f191681016001600160401b03811182821017156200037d576200037d62000311565b604052919050565b6001600160a01b0381168114620002de57600080fd5b60005b83811015620003b85781810151838201526020016200039e565b50506000910152565b60006020808385031215620003d557600080fd5b82516001600160401b0380821115620003ed57600080fd5b90840190604082870312156200040257600080fd5b6200040c62000327565b8251620004198162000385565b815282840151828111156200042d57600080fd5b80840193505086601f8401126200044357600080fd5b82518281111562000458576200045862000311565b6200046c601f8201601f1916860162000352565b925080835287858286010111156200048357600080fd5b62000494818685018787016200039b565b5092830152509392505050565b60008151808452620004bb8160208601602086016200039b565b601f01601f19169290920160200192915050565b60018060a01b0384168152826020820152606060408201526000620004f86060830184620004a1565b95945050505050565b600081518084526020808501945080840160005b83811015620005335781518752958201959082019060010162000515565b509495945050505050565b6000606082016060835280865180835260808501915060808160051b8601019250602080890160005b838110156200059957607f1988870301855262000586868351620004a1565b9550938201939082019060010162000567565b505085840381870152505050620005b1818662000501565b90508281036040840152620005c7818562000501565b9695505050505050565b600080600060608486031215620005e757600080fd5b8351620005f48162000385565b6020850151909350620006078162000385565b60408501519092506200061a8162000385565b809150509250925092565b6020815260006200063a6020830184620004a1565b9392505050565b615ebb80620006516000396000f3fe6080604052600436106101635760003560e01c806395d89b41116100c0578063bffc7d4811610074578063e985e9c511610059578063e985e9c514610433578063f23a6e611461048a578063f6420112146104cf57600080fd5b8063bffc7d48146103f3578063c87b56dd1461041357600080fd5b8063ac9650d8116100a5578063ac9650d814610361578063b88d4fde1461038e578063bc197c81146103ae57600080fd5b806395d89b411461032c578063a22cb4651461034157600080fd5b806323b872dd11610117578063439fab91116100fc578063439fab91146102be5780636352211e146102de57806370a08231146102fe57600080fd5b806323b872dd1461027e57806342842e0e1461029e57600080fd5b8063081812fc11610148578063081812fc146101c6578063095ea7b31461020b578063150b7a021461022d57600080fd5b806301ffc9a71461016f57806306fdde03146101a457600080fd5b3661016a57005b600080fd5b34801561017b57600080fd5b5061018f61018a36600461493d565b6104ef565b60405190151581526020015b60405180910390f35b3480156101b057600080fd5b506101b9610500565b60405161019b91906149c8565b3480156101d257600080fd5b506101e66101e13660046149db565b610593565b60405173ffffffffffffffffffffffffffffffffffffffff909116815260200161019b565b34801561021757600080fd5b5061022b610226366004614a16565b6105c8565b005b34801561023957600080fd5b5061024d610248366004614b9a565b610759565b6040517fffffffff00000000000000000000000000000000000000000000000000000000909116815260200161019b565b34801561028a57600080fd5b5061022b610299366004614c06565b610783565b3480156102aa57600080fd5b5061022b6102b9366004614c06565b610824565b3480156102ca57600080fd5b5061022b6102d9366004614c47565b61083f565b3480156102ea57600080fd5b506101e66102f93660046149db565b610c45565b34801561030a57600080fd5b5061031e610319366004614cb9565b610cd2565b60405190815260200161019b565b34801561033857600080fd5b506101b9610da1565b34801561034d57600080fd5b5061022b61035c366004614ce4565b610db1565b34801561036d57600080fd5b5061038161037c366004614d1d565b610dc0565b60405161019b9190614dd5565b34801561039a57600080fd5b5061022b6103a9366004614b9a565b610eb5565b3480156103ba57600080fd5b5061024d6103c9366004614e6c565b7fbc197c810000000000000000000000000000000000000000000000000000000095945050505050565b610406610401366004614f1a565b610f5d565b60405161019b9190615210565b34801561041f57600080fd5b506101b961042e3660046149db565b610f7a565b34801561043f57600080fd5b5061018f61044e366004615331565b73ffffffffffffffffffffffffffffffffffffffff91821660009081526101656020908152604080832093909416825291909152205460ff1690565b34801561049657600080fd5b5061024d6104a536600461535f565b7ff23a6e610000000000000000000000000000000000000000000000000000000095945050505050565b3480156104db57600080fd5b506104066104ea366004614f1a565b611137565b60006104fa826112c9565b92915050565b60606101608054610510906153c8565b80601f016020809104026020016040519081016040528092919081815260200182805461053c906153c8565b80156105895780601f1061055e57610100808354040283529160200191610589565b820191906000526020600020905b81548152906001019060200180831161056c57829003601f168201915b5050505050905090565b600061059e8261136b565b506000908152610164602052604090205473ffffffffffffffffffffffffffffffffffffffff1690565b60006105d382610c45565b90508073ffffffffffffffffffffffffffffffffffffffff168373ffffffffffffffffffffffffffffffffffffffff1603610695576040517f08c379a000000000000000000000000000000000000000000000000000000000815260206004820152602160248201527f4552433732313a20617070726f76616c20746f2063757272656e74206f776e6560448201527f720000000000000000000000000000000000000000000000000000000000000060648201526084015b60405180910390fd5b3373ffffffffffffffffffffffffffffffffffffffff821614806106be57506106be813361044e565b61074a576040517f08c379a000000000000000000000000000000000000000000000000000000000815260206004820152603d60248201527f4552433732313a20617070726f76652063616c6c6572206973206e6f7420746f60448201527f6b656e206f776e6572206f7220617070726f76656420666f7220616c6c000000606482015260840161068c565b61075483836113fa565b505050565b7f150b7a02000000000000000000000000000000000000000000000000000000005b949350505050565b61078d338261149b565b610819576040517f08c379a000000000000000000000000000000000000000000000000000000000815260206004820152602d60248201527f4552433732313a2063616c6c6572206973206e6f7420746f6b656e206f776e6560448201527f72206f7220617070726f76656400000000000000000000000000000000000000606482015260840161068c565b61075483838361155b565b61075483838360405180602001604052806000815250610eb5565b600054610100900460ff161580801561085f5750600054600160ff909116105b806108795750303b158015610879575060005460ff166001145b610905576040517f08c379a000000000000000000000000000000000000000000000000000000000815260206004820152602e60248201527f496e697469616c697a61626c653a20636f6e747261637420697320616c72656160448201527f647920696e697469616c697a6564000000000000000000000000000000000000606482015260840161068c565b600080547fffffffffffffffffffffffffffffffffffffffffffffffffffffffffffffff00166001179055801561096357600080547fffffffffffffffffffffffffffffffffffffffffffffffffffffffffffff00ff166101001790555b600061097183850185615590565b90507f1b3bea5f51e285daf000b660a0f1ce5abaa85c32c679b429a4b3aaf911c9f97e33826040516109a492919061570b565b60405180910390a16109b4611861565b6109c681600001518260200151611902565b6040810151610196906109d99082615886565b5060808101516109f4906109ef600460026159cf565b6119a3565b6060810151602001515115610bdd576000816060015160200151600081518110610a2057610a206159e2565b6020026020010151511161019260006101000a81548160ff021916908315150217905550600181606001516020015151118015610a8057506000816060015160200151600181518110610a7557610a756159e2565b602002602001015151115b6101928054911515610100027fffffffffffffffffffffffffffffffffffffffffffffffffffffffffffff00ff9092169190911790556060810151805160208201516040909201516000928392839273ffffffffffffffffffffffffffffffffffffffff90911691635511cb6791610af9856001611cb3565b6040518463ffffffff1660e01b8152600401610b1793929190615a11565b6060604051808303816000875af1158015610b36573d6000803e3d6000fd5b505050506040513d601f19601f82011682018060405250810190610b5a9190615a54565b6040805160608101825273ffffffffffffffffffffffffffffffffffffffff9485168082529385166020820181905292909416930183905261019380547fffffffffffffffffffffffff00000000000000000000000000000000000000009081169093179055610194805483169091179055610195805490911690911790555050505b50801561075457600080547fffffffffffffffffffffffffffffffffffffffffffffffffffffffffffff00ff169055604051600181527f7f26b83ff96e1f2b6a682f133852f6798a09c465da95921460cefb38474024989060200160405180910390a1505050565b6000818152610162602052604081205473ffffffffffffffffffffffffffffffffffffffff16806104fa576040517f08c379a000000000000000000000000000000000000000000000000000000000815260206004820152601860248201527f4552433732313a20696e76616c696420746f6b656e2049440000000000000000604482015260640161068c565b600073ffffffffffffffffffffffffffffffffffffffff8216610d77576040517f08c379a000000000000000000000000000000000000000000000000000000000815260206004820152602960248201527f4552433732313a2061646472657373207a65726f206973206e6f74206120766160448201527f6c6964206f776e65720000000000000000000000000000000000000000000000606482015260840161068c565b5073ffffffffffffffffffffffffffffffffffffffff166000908152610163602052604090205490565b60606101618054610510906153c8565b610dbc338383611ce7565b5050565b60608167ffffffffffffffff811115610ddb57610ddb614a42565b604051908082528060200260200182016040528015610e0e57816020015b6060815260200190600190039081610df95790505b50905060005b82811015610eae57610e7e30858584818110610e3257610e326159e2565b9050602002810190610e449190615aa1565b8080601f016020809104026020016040519081016040528093929190818152602001838380828437600092019190915250611e1592505050565b828281518110610e9057610e906159e2565b60200260200101819052508080610ea690615b06565b915050610e14565b5092915050565b610ebf338361149b565b610f4b576040517f08c379a000000000000000000000000000000000000000000000000000000000815260206004820152602d60248201527f4552433732313a2063616c6c6572206973206e6f7420746f6b656e206f776e6560448201527f72206f7220617070726f76656400000000000000000000000000000000000000606482015260840161068c565b610f5784848484611f54565b50505050565b610f656148c6565b610f70848484611ff7565b90505b9392505050565b61019254606090610100900460ff161561112e57604080516060810182526101935473ffffffffffffffffffffffffffffffffffffffff9081168083526101945482166020840181905261019554909216938301849052919260009291636715f825918490610fe8906121b7565b6040805160008082526020820190925261108991611016565b60608152602001906001900390816110015790505b506110208b6121e2565b6040805160008082526020820190925290611083565b6110706040518060600160405280600073ffffffffffffffffffffffffffffffffffffffff16815260200160608152602001606081525090565b8152602001906001900390816110365790505b50612214565b6040518563ffffffff1660e01b81526004016110a89493929190615b86565b600060405180830381865afa1580156110c5573d6000803e3d6000fd5b505050506040513d6000823e601f3d9081017fffffffffffffffffffffffffffffffffffffffffffffffffffffffffffffffe016820160405261110b9190810190615c1c565b50905080600081518110611121576111216159e2565b6020026020010151935050505b6104fa8261251a565b61113f6148c6565b6000611181815b60405190808252806020026020018201604052801561117957816020015b60608152602001906001900390816111645790505b508585612214565b9050600061118f8683612580565b509695505050505050565b805160208201208281146111e4576040517f74fe10f0000000000000000000000000000000000000000000000000000000008152600481018490526024810182905260440161068c565b6107548261269f565b6040805160008082526020820190925273ffffffffffffffffffffffffffffffffffffffff831691635511cb679190611236565b60608152602001906001900390816112215790505b5060408051600080825260208201908152818301928390527fffffffff0000000000000000000000000000000000000000000000000000000060e086901b16909252611286929160448201615a11565b6060604051808303816000875af11580156112a5573d6000803e3d6000fd5b505050506040513d601f19601f82011682018060405250810190610f579190615a54565b60007fffffffff0000000000000000000000000000000000000000000000000000000082167f80ac58cd00000000000000000000000000000000000000000000000000000000148061135c57507fffffffff0000000000000000000000000000000000000000000000000000000082167f5b5e139f00000000000000000000000000000000000000000000000000000000145b806104fa57506104fa826126e0565b6000818152610162602052604090205473ffffffffffffffffffffffffffffffffffffffff166113f7576040517f08c379a000000000000000000000000000000000000000000000000000000000815260206004820152601860248201527f4552433732313a20696e76616c696420746f6b656e2049440000000000000000604482015260640161068c565b50565b60008181526101646020526040902080547fffffffffffffffffffffffff00000000000000000000000000000000000000001673ffffffffffffffffffffffffffffffffffffffff8416908117909155819061145582610c45565b73ffffffffffffffffffffffffffffffffffffffff167f8c5be1e5ebec7d5bd14f71427d1e84f3dd0314c0f7b2291e5b200ac8c7c3b92560405160405180910390a45050565b6000806114a783610c45565b90508073ffffffffffffffffffffffffffffffffffffffff168473ffffffffffffffffffffffffffffffffffffffff161480611516575073ffffffffffffffffffffffffffffffffffffffff8082166000908152610165602090815260408083209388168352929052205460ff165b8061077b57508373ffffffffffffffffffffffffffffffffffffffff1661153c84610593565b73ffffffffffffffffffffffffffffffffffffffff1614949350505050565b8273ffffffffffffffffffffffffffffffffffffffff1661157b82610c45565b73ffffffffffffffffffffffffffffffffffffffff161461161e576040517f08c379a000000000000000000000000000000000000000000000000000000000815260206004820152602560248201527f4552433732313a207472616e736665722066726f6d20696e636f72726563742060448201527f6f776e6572000000000000000000000000000000000000000000000000000000606482015260840161068c565b73ffffffffffffffffffffffffffffffffffffffff82166116c0576040517f08c379a0000000000000000000000000000000000000000000000000000000008152602060048201526024808201527f4552433732313a207472616e7366657220746f20746865207a65726f2061646460448201527f7265737300000000000000000000000000000000000000000000000000000000606482015260840161068c565b8273ffffffffffffffffffffffffffffffffffffffff166116e082610c45565b73ffffffffffffffffffffffffffffffffffffffff1614611783576040517f08c379a000000000000000000000000000000000000000000000000000000000815260206004820152602560248201527f4552433732313a207472616e736665722066726f6d20696e636f72726563742060448201527f6f776e6572000000000000000000000000000000000000000000000000000000606482015260840161068c565b60008181526101646020908152604080832080547fffffffffffffffffffffffff000000000000000000000000000000000000000090811690915573ffffffffffffffffffffffffffffffffffffffff878116808652610163855283862080547fffffffffffffffffffffffffffffffffffffffffffffffffffffffffffffffff0190559087168086528386208054600101905586865261016290945282852080549092168417909155905184937fddf252ad1be2c89b69c2b068fc378daa952ba7f163c4a11628f55a4df523b3ef91a46107548383836001612777565b600054610100900460ff166118f8576040517f08c379a000000000000000000000000000000000000000000000000000000000815260206004820152602b60248201527f496e697469616c697a61626c653a20636f6e7472616374206973206e6f74206960448201527f6e697469616c697a696e67000000000000000000000000000000000000000000606482015260840161068c565b6119006129da565b565b600054610100900460ff16611999576040517f08c379a000000000000000000000000000000000000000000000000000000000815260206004820152602b60248201527f496e697469616c697a61626c653a20636f6e7472616374206973206e6f74206960448201527f6e697469616c697a696e67000000000000000000000000000000000000000000606482015260840161068c565b610dbc8282612a77565b600054610100900460ff16611a3a576040517f08c379a000000000000000000000000000000000000000000000000000000000815260206004820152602b60248201527f496e697469616c697a61626c653a20636f6e7472616374206973206e6f74206960448201527f6e697469616c697a696e67000000000000000000000000000000000000000000606482015260840161068c565b611a42612b29565b611a4a612b29565b611a52612b29565b6004811015611a90576040517fb0682cf30000000000000000000000000000000000000000000000000000000081526004810182905260240161068c565b611aca6040518060600160405280600073ffffffffffffffffffffffffffffffffffffffff16815260200160608152602001606081525090565b60408051606081018252600080825260208201819052918101829052905b8451811015611cac57848181518110611b0357611b036159e2565b602002602001015192506000806000856000015173ffffffffffffffffffffffffffffffffffffffff16635511cb6787602001518860400151611b458b6121e2565b6040518463ffffffff1660e01b8152600401611b6393929190615a11565b6060604051808303816000875af1158015611b82573d6000803e3d6000fd5b505050506040513d601f19601f82011682018060405250810190611ba69190615a54565b92509250925060405180606001604052808473ffffffffffffffffffffffffffffffffffffffff1681526020018373ffffffffffffffffffffffffffffffffffffffff1681526020018273ffffffffffffffffffffffffffffffffffffffff168152509450600161015f6000611c1b88612bc0565b81526020808201929092526040908101600020929092558151338152875173ffffffffffffffffffffffffffffffffffffffff9081168284015291880151821681840152918701511660608201527fed510090abe2a95b97a621e3d2c947ea3c26eced1c87470474d17e353dcc53389060800160405180910390a15050508080611ca490615b06565b915050611ae8565b5050505050565b6040805160028082526060808301845292600092919060208301908036833750505060208101949094525050604082015290565b8173ffffffffffffffffffffffffffffffffffffffff168373ffffffffffffffffffffffffffffffffffffffff1603611d7c576040517f08c379a000000000000000000000000000000000000000000000000000000000815260206004820152601960248201527f4552433732313a20617070726f766520746f2063616c6c657200000000000000604482015260640161068c565b73ffffffffffffffffffffffffffffffffffffffff8381166000818152610165602090815260408083209487168084529482529182902080547fffffffffffffffffffffffffffffffffffffffffffffffffffffffffffffff001686151590811790915591519182527f17307eab39ab6107e8899845ad3d59bd9653f200f220920489ca2b5937696c31910160405180910390a3505050565b606073ffffffffffffffffffffffffffffffffffffffff83163b611ebb576040517f08c379a000000000000000000000000000000000000000000000000000000000815260206004820152602660248201527f416464726573733a2064656c65676174652063616c6c20746f206e6f6e2d636f60448201527f6e74726163740000000000000000000000000000000000000000000000000000606482015260840161068c565b6000808473ffffffffffffffffffffffffffffffffffffffff1684604051611ee39190615c80565b600060405180830381855af49150503d8060008114611f1e576040519150601f19603f3d011682016040523d82523d6000602084013e611f23565b606091505b5091509150611f4b8282604051806060016040528060278152602001615e5f60279139612c36565b95945050505050565b611f5f84848461155b565b611f6b84848484612c4f565b610f57576040517f08c379a000000000000000000000000000000000000000000000000000000000815260206004820152603260248201527f4552433732313a207472616e7366657220746f206e6f6e20455243373231526560448201527f63656976657220696d706c656d656e7465720000000000000000000000000000606482015260840161068c565b611fff6148c6565b612007612e3f565b600061201281611146565b90507f17a5c0f3785132a57703932032f6863e7920434150aa1dc940e567b440fdce1f3382604051612045929190615c9c565b60405180910390a160008061205a8784612580565b9150915060005b8251518110156120bf576120b783600001518281518110612084576120846159e2565b602002602001015160000151846000015183815181106120a6576120a66159e2565b602002602001015160200151612eb2565b600101612061565b5060005b826020015151811015612196576000836020015182815181106120e8576120e86159e2565b60200260200101516020015190508360200151828151811061210c5761210c6159e2565b60200260200101516000015173ffffffffffffffffffffffffffffffffffffffff1661213782610c45565b73ffffffffffffffffffffffffffffffffffffffff1614612184576040517f375e3a0c00000000000000000000000000000000000000000000000000000000815260040160405180910390fd5b61218d81612ecc565b506001016120c3565b506121aa8260400151886020015183612fb1565b50915050610f7360018055565b600062010001602083901b77ffffffffffffffffffffffffffffffffffffffff0000000016176104fa565b604080516001808252818301909252606091600091906020808301908036833750505060208101939093525090919050565b60606000825167ffffffffffffffff81111561223257612232614a42565b60405190808252806020026020018201604052801561225b578160200160208202803683370190505b50905060008084511161226f576000612275565b83516001015b865101600201905060008167ffffffffffffffff81111561229857612298614a42565b6040519080825280602002602001820160405280156122cb57816020015b60608152602001906001900390816122b65790505b50905060006122d8613064565b8282815181106122ea576122ea6159e2565b602002602001018190525060005b885181101561234857818060010192505088818151811061231b5761231b6159e2565b6020026020010151838381518110612335576123356159e2565b60209081029190910101526001016122f8565b50808060010191505086828281518110612364576123646159e2565b602090810291909101015285511561118f57808060010191505083828281518110612391576123916159e2565b602002602001018190525060005b865181101561250e576124388782815181106123bd576123bd6159e2565b6020026020010151600001516124158984815181106123de576123de6159e2565b6020026020010151604001516040516020016123fa9190615ccb565b60405160208183030381529060405280519060200120613075565b898481518110612427576124276159e2565b6020026020010151602001516130b0565b612471576040517f52bf98480000000000000000000000000000000000000000000000000000000081526004810182905260240161068c565b868181518110612483576124836159e2565b60200260200101516000015173ffffffffffffffffffffffffffffffffffffffff168582815181106124b7576124b76159e2565b60200260200101818152505081806001019250508681815181106124dd576124dd6159e2565b6020026020010151604001518383815181106124fb576124fb6159e2565b602090810291909101015260010161239f565b50509695505050505050565b60606125258261136b565b600061252f61327d565b9050600081511161254f5760405180602001604052806000815250610f73565b806125598461328d565b60405160200161256a929190615d01565b6040516020818303038152906040529392505050565b6125886148c6565b6060806125936148c6565b60008060006125a2898961334b565b60408051808201909152601981527f5241494e5f464c4f575f4552433732315f53454e54494e454c000000000000006020909101529194509250905061260b82847ffe90d819490b07580877ce7c3005704048c62af96c6745886d7e356e0b63924a600261348a565b80865260408051808201909152601981527f5241494e5f464c4f575f4552433732315f53454e54494e454c000000000000006020909101529550915061267482847ffe90d819490b07580877ce7c3005704048c62af96c6745886d7e356e0b63924a600261348a565b6020860181905295509150612689838361353c565b60408501529295509193505050505b9250929050565b6126a881613748565b6113f757806040517f644cc25800000000000000000000000000000000000000000000000000000000815260040161068c91906149c8565b60007fffffffff0000000000000000000000000000000000000000000000000000000082167f4e2312e00000000000000000000000000000000000000000000000000000000014806104fa57507f01ffc9a7000000000000000000000000000000000000000000000000000000007fffffffff000000000000000000000000000000000000000000000000000000008316146104fa565b6101925460ff1615610f575773ffffffffffffffffffffffffffffffffffffffff841615806127ba575073ffffffffffffffffffffffffffffffffffffffff8316155b610f5757604080516060810182526101935473ffffffffffffffffffffffffffffffffffffffff9081168083526101945482166020840181905261019554909216938301849052919260009291636715f82591849061281890613778565b604080516000808252602082019092526128d091612846565b60608152602001906001900390816128315790505b506110208d73ffffffffffffffffffffffffffffffffffffffff168d73ffffffffffffffffffffffffffffffffffffffff168d61379e565b6128b86040518060600160405280600073ffffffffffffffffffffffffffffffffffffffff16815260200160608152602001606081525090565b81526020019060019003908161287e57905050612214565b6040518563ffffffff1660e01b81526004016128ef9493929190615b86565b600060405180830381865afa15801561290c573d6000803e3d6000fd5b505050506040513d6000823e601f3d9081017fffffffffffffffffffffffffffffffffffffffffffffffffffffffffffffffe01682016040526129529190810190615c1c565b9150506000815111156129d257816020015173ffffffffffffffffffffffffffffffffffffffff1663946aadc66000836040518363ffffffff1660e01b815260040161299f929190615d30565b600060405180830381600087803b1580156129b957600080fd5b505af11580156129cd573d6000803e3d6000fd5b505050505b505050505050565b600054610100900460ff16612a71576040517f08c379a000000000000000000000000000000000000000000000000000000000815260206004820152602b60248201527f496e697469616c697a61626c653a20636f6e7472616374206973206e6f74206960448201527f6e697469616c697a696e67000000000000000000000000000000000000000000606482015260840161068c565b60018055565b600054610100900460ff16612b0e576040517f08c379a000000000000000000000000000000000000000000000000000000000815260206004820152602b60248201527f496e697469616c697a61626c653a20636f6e7472616374206973206e6f74206960448201527f6e697469616c697a696e67000000000000000000000000000000000000000000606482015260840161068c565b610160612b1b8382615886565b506101616107548282615886565b600054610100900460ff16611900576040517f08c379a000000000000000000000000000000000000000000000000000000000815260206004820152602b60248201527f496e697469616c697a61626c653a20636f6e7472616374206973206e6f74206960448201527f6e697469616c697a696e67000000000000000000000000000000000000000000606482015260840161068c565b805160208083015160408085015190517fffffffffffffffffffffffffffffffffffffffff000000000000000000000000606095861b81169482019490945291841b8316603483015290921b166048820152600090605c015b604051602081830303815290604052805190602001209050919050565b60608315612c45575081610f73565b610f7383836137db565b600073ffffffffffffffffffffffffffffffffffffffff84163b15612e37576040517f150b7a0200000000000000000000000000000000000000000000000000000000815273ffffffffffffffffffffffffffffffffffffffff85169063150b7a0290612cc6903390899088908890600401615d49565b6020604051808303816000875af1925050508015612d1f575060408051601f3d9081017fffffffffffffffffffffffffffffffffffffffffffffffffffffffffffffffe0168201909252612d1c91810190615d88565b60015b612dec573d808015612d4d576040519150601f19603f3d011682016040523d82523d6000602084013e612d52565b606091505b508051600003612de4576040517f08c379a000000000000000000000000000000000000000000000000000000000815260206004820152603260248201527f4552433732313a207472616e7366657220746f206e6f6e20455243373231526560448201527f63656976657220696d706c656d656e7465720000000000000000000000000000606482015260840161068c565b805181602001fd5b7fffffffff00000000000000000000000000000000000000000000000000000000167f150b7a020000000000000000000000000000000000000000000000000000000014905061077b565b50600161077b565b600260015403612eab576040517f08c379a000000000000000000000000000000000000000000000000000000000815260206004820152601f60248201527f5265656e7472616e637947756172643a207265656e7472616e742063616c6c00604482015260640161068c565b6002600155565b610dbc82826040518060200160405280600081525061381f565b6000612ed782610c45565b9050612ee282610c45565b60008381526101646020908152604080832080547fffffffffffffffffffffffff000000000000000000000000000000000000000090811690915573ffffffffffffffffffffffffffffffffffffffff8516808552610163845282852080547fffffffffffffffffffffffffffffffffffffffffffffffffffffffffffffffff019055878552610162909352818420805490911690555192935084927fddf252ad1be2c89b69c2b068fc378daa952ba7f163c4a11628f55a4df523b3ef908390a4610dbc816000846001612777565b805115613040576040517f946aadc600000000000000000000000000000000000000000000000000000000815273ffffffffffffffffffffffffffffffffffffffff83169063946aadc69061300d906000908590600401615d30565b600060405180830381600087803b15801561302757600080fd5b505af115801561303b573d6000803e3d6000fd5b505050505b613049836138c2565b61305283613a90565b61305b83613bee565b61075483613d7f565b60606130703330611cb3565b905090565b6040517f19457468657265756d205369676e6564204d6573736167653a0a3332000000006020820152603c8101829052600090605c01612c19565b60008060006130bf8585613f2f565b909250905060008160048111156130d8576130d8615da5565b14801561311057508573ffffffffffffffffffffffffffffffffffffffff168273ffffffffffffffffffffffffffffffffffffffff16145b1561312057600192505050610f73565b6000808773ffffffffffffffffffffffffffffffffffffffff16631626ba7e60e01b8888604051602401613155929190615dd4565b604080517fffffffffffffffffffffffffffffffffffffffffffffffffffffffffffffffe08184030181529181526020820180517bffffffffffffffffffffffffffffffffffffffffffffffffffffffff167fffffffff000000000000000000000000000000000000000000000000000000009094169390931790925290516131de9190615c80565b600060405180830381855afa9150503d8060008114613219576040519150601f19603f3d011682016040523d82523d6000602084013e61321e565b606091505b5091509150818015613231575080516020145b8015613271575080517f1626ba7e000000000000000000000000000000000000000000000000000000009061326f9083016020908101908401615ded565b145b98975050505050505050565b60606101968054610510906153c8565b6060600061329a83613f71565b600101905060008167ffffffffffffffff8111156132ba576132ba614a42565b6040519080825280601f01601f1916602001820160405280156132e4576020820181803683370190505b5090508181016020015b7fffffffffffffffffffffffffffffffffffffffffffffffffffffffffffffffff017f3031323334353637383961626364656600000000000000000000000000000000600a86061a8153600a85049450846132ee57509392505050565b600080606084600061335c82612bc0565b600081815261015f6020526040812054919250036133a9576040517f7a80ba4d0000000000000000000000000000000000000000000000000000000081526004810182905260240161068c565b600080886000015173ffffffffffffffffffffffffffffffffffffffff16636715f8258a6020015160006133e08d60400151614053565b8c6040518563ffffffff1660e01b81526004016134009493929190615b86565b600060405180830381865afa15801561341d573d6000803e3d6000fd5b505050506040513d6000823e601f3d9081017fffffffffffffffffffffffffffffffffffffffffffffffffffffffffffffffe01682016040526134639190810190615c1c565b915091506134718260200190565b8251909a60209182029093010198509650945050505050565b60006060818061349c8888888861407d565b9150915060008582516134af9190615e06565b905060008167ffffffffffffffff8111156134cc576134cc614a42565b6040519080825280602002602001820160405280156134f5578160200160208202803683370190505b50905060208101602082510281016020850160208a025b82841015613526578184526020909301929081019061350c565b5095975091955050505050505b94509492505050565b6135676040518060800160405280606081526020016060815260200160608152602001606081525090565b6135926040518060800160405280606081526020016060815260200160608152602001606081525090565b60408051808201909152601281527f5241494e5f464c4f575f53454e54494e454c000000000000000000000000000060209091015260606135f684867ffea74d0c9bf4a3c28f0dd0674db22a3d7f8bf259c56af19f4ac1e735b156974f600361348a565b80845260408051808201909152601281527f5241494e5f464c4f575f53454e54494e454c0000000000000000000000000000602090910152909450905061366084867ffea74d0c9bf4a3c28f0dd0674db22a3d7f8bf259c56af19f4ac1e735b156974f600461348a565b602084810182905260408051808201909152601281527f5241494e5f464c4f575f53454e54494e454c000000000000000000000000000091015290945090506136cc84867ffea74d0c9bf4a3c28f0dd0674db22a3d7f8bf259c56af19f4ac1e735b156974f600461348a565b60408481018290528051808201909152601281527f5241494e5f464c4f575f53454e54494e454c0000000000000000000000000000602090910152909450905061373984867ffea74d0c9bf4a3c28f0dd0674db22a3d7f8bf259c56af19f4ac1e735b156974f600561348a565b60608401525090949350505050565b600060088251101561375c57506000919050565b506008015167ffffffffffffffff1667ff0a89c674ee78741490565b6000602082901b77ffffffffffffffffffffffffffffffffffffffff00000000166104fa565b6040805160038082526080820190925260609160009190602082018480368337505050602081019590955250506040830191909152606082015290565b8151156137eb5781518083602001fd5b806040517f08c379a000000000000000000000000000000000000000000000000000000000815260040161068c91906149c8565b61382983836140dd565b6138366000848484612c4f565b610754576040517f08c379a000000000000000000000000000000000000000000000000000000000815260206004820152603260248201527f4552433732313a207472616e7366657220746f206e6f6e20455243373231526560448201527f63656976657220696d706c656d656e7465720000000000000000000000000000606482015260840161068c565b60408051606081018252600080825260208201819052918101829052819060005b845151811015613a71578451805182908110613901576139016159e2565b602002602001015191503373ffffffffffffffffffffffffffffffffffffffff16826000015173ffffffffffffffffffffffffffffffffffffffff16036139a357602082015173ffffffffffffffffffffffffffffffffffffffff163014613995576040517f56c7455200000000000000000000000000000000000000000000000000000000815260040160405180910390fd5b816040015184019350613a69565b815173ffffffffffffffffffffffffffffffffffffffff1630146139f3576040517f56c7455200000000000000000000000000000000000000000000000000000000815260040160405180910390fd5b3373ffffffffffffffffffffffffffffffffffffffff16826020015173ffffffffffffffffffffffffffffffffffffffff1603613a3857816040015183019250613a69565b613a698260400151836020015173ffffffffffffffffffffffffffffffffffffffff1661431090919063ffffffff16565b6001016138e3565b508215613a8057823403820191505b8115610f5757610f573383614310565b6040805160808101825260008082526020820181905291810182905260608101829052905b8260200151518110156107545782602001518181518110613ad857613ad86159e2565b602002602001015191503373ffffffffffffffffffffffffffffffffffffffff16826020015173ffffffffffffffffffffffffffffffffffffffff1603613b4f57604082015160608301518351613b4a9273ffffffffffffffffffffffffffffffffffffffff9091169133919061446a565b613be6565b3073ffffffffffffffffffffffffffffffffffffffff16826020015173ffffffffffffffffffffffffffffffffffffffff1603613bb457604082015160608301518351613b4a9273ffffffffffffffffffffffffffffffffffffffff90911691614546565b6040517fa521c60f00000000000000000000000000000000000000000000000000000000815260040160405180910390fd5b600101613ab5565b6040805160808101825260008082526020820181905291810182905260608101829052905b8260400151518110156107545782604001518181518110613c3657613c366159e2565b602002602001015191503373ffffffffffffffffffffffffffffffffffffffff16826020015173ffffffffffffffffffffffffffffffffffffffff1614158015613c9a5750602082015173ffffffffffffffffffffffffffffffffffffffff163014155b15613cd1576040517f3a5befc500000000000000000000000000000000000000000000000000000000815260040160405180910390fd5b81516020830151604080850151606086015191517f42842e0e00000000000000000000000000000000000000000000000000000000815273ffffffffffffffffffffffffffffffffffffffff9384166004820152908316602482015260448101919091529116906342842e0e90606401600060405180830381600087803b158015613d5b57600080fd5b505af1158015613d6f573d6000803e3d6000fd5b505060019092019150613c139050565b6040805160a0810182526000808252602082018190529181018290526060810182905260808101829052905b8260600151518110156107545782606001518181518110613dce57613dce6159e2565b602002602001015191503373ffffffffffffffffffffffffffffffffffffffff16826020015173ffffffffffffffffffffffffffffffffffffffff1614158015613e325750602082015173ffffffffffffffffffffffffffffffffffffffff163014155b15613e69576040517fc6a91ecc00000000000000000000000000000000000000000000000000000000815260040160405180910390fd5b815160208301516040808501516060860151608087015192517ff242432a00000000000000000000000000000000000000000000000000000000815273ffffffffffffffffffffffffffffffffffffffff948516600482015291841660248301526044820152606481019190915260a06084820152600060a482015291169063f242432a9060c401600060405180830381600087803b158015613f0b57600080fd5b505af1158015613f1f573d6000803e3d6000fd5b505060019092019150613dab9050565b6000808251604103613f655760208301516040840151606085015160001a613f598782858561459c565b94509450505050612698565b50600090506002612698565b6000807a184f03e93ff9f4daa797ed6e38ed64bf6a1f0100000000000000008310613fba577a184f03e93ff9f4daa797ed6e38ed64bf6a1f010000000000000000830492506040015b6d04ee2d6d415b85acef81000000008310613fe6576d04ee2d6d415b85acef8100000000830492506020015b662386f26fc10000831061400457662386f26fc10000830492506010015b6305f5e100831061401c576305f5e100830492506008015b612710831061403057612710830492506004015b60648310614042576064830492506002015b600a83106104fa5760010192915050565b6000602082901b77ffffffffffffffffffffffffffffffffffffffff000000001661ffff176104fa565b60006060808561408c57600080fd5b6000806020860260208a039950602089035b808b11156140c4578a5189036140b6578a93506140c4565b99819003999187019161409e565b5050816140d057600080fd5b8152969795505050505050565b73ffffffffffffffffffffffffffffffffffffffff821661415a576040517f08c379a000000000000000000000000000000000000000000000000000000000815260206004820181905260248201527f4552433732313a206d696e7420746f20746865207a65726f2061646472657373604482015260640161068c565b6000818152610162602052604090205473ffffffffffffffffffffffffffffffffffffffff16156141e7576040517f08c379a000000000000000000000000000000000000000000000000000000000815260206004820152601c60248201527f4552433732313a20746f6b656e20616c7265616479206d696e74656400000000604482015260640161068c565b6000818152610162602052604090205473ffffffffffffffffffffffffffffffffffffffff1615614274576040517f08c379a000000000000000000000000000000000000000000000000000000000815260206004820152601c60248201527f4552433732313a20746f6b656e20616c7265616479206d696e74656400000000604482015260640161068c565b73ffffffffffffffffffffffffffffffffffffffff82166000818152610163602090815260408083208054600101905584835261016290915280822080547fffffffffffffffffffffffff0000000000000000000000000000000000000000168417905551839291907fddf252ad1be2c89b69c2b068fc378daa952ba7f163c4a11628f55a4df523b3ef908290a4610dbc600083836001612777565b8047101561437a576040517f08c379a000000000000000000000000000000000000000000000000000000000815260206004820152601d60248201527f416464726573733a20696e73756666696369656e742062616c616e6365000000604482015260640161068c565b60008273ffffffffffffffffffffffffffffffffffffffff168260405160006040518083038185875af1925050503d80600081146143d4576040519150601f19603f3d011682016040523d82523d6000602084013e6143d9565b606091505b5050905080610754576040517f08c379a000000000000000000000000000000000000000000000000000000000815260206004820152603a60248201527f416464726573733a20756e61626c6520746f2073656e642076616c75652c207260448201527f6563697069656e74206d61792068617665207265766572746564000000000000606482015260840161068c565b60405173ffffffffffffffffffffffffffffffffffffffff80851660248301528316604482015260648101829052610f579085907f23b872dd00000000000000000000000000000000000000000000000000000000906084015b604080517fffffffffffffffffffffffffffffffffffffffffffffffffffffffffffffffe08184030181529190526020810180517bffffffffffffffffffffffffffffffffffffffffffffffffffffffff167fffffffff0000000000000000000000000000000000000000000000000000000090931692909217909152614688565b60405173ffffffffffffffffffffffffffffffffffffffff83166024820152604481018290526107549084907fa9059cbb00000000000000000000000000000000000000000000000000000000906064016144c4565b6000807f7fffffffffffffffffffffffffffffff5d576e7357a4501ddfe92f46681b20a08311156145d35750600090506003613533565b6040805160008082526020820180845289905260ff881692820192909252606081018690526080810185905260019060a0016020604051602081039080840390855afa158015614627573d6000803e3d6000fd5b50506040517fffffffffffffffffffffffffffffffffffffffffffffffffffffffffffffffe0015191505073ffffffffffffffffffffffffffffffffffffffff811661467b57600060019250925050613533565b9660009650945050505050565b60006146ea826040518060400160405280602081526020017f5361666545524332303a206c6f772d6c6576656c2063616c6c206661696c65648152508573ffffffffffffffffffffffffffffffffffffffff166147949092919063ffffffff16565b80519091501561075457808060200190518101906147089190615e41565b610754576040517f08c379a000000000000000000000000000000000000000000000000000000000815260206004820152602a60248201527f5361666545524332303a204552433230206f7065726174696f6e20646964206e60448201527f6f74207375636365656400000000000000000000000000000000000000000000606482015260840161068c565b6060610f708484600085856000808673ffffffffffffffffffffffffffffffffffffffff1685876040516147c89190615c80565b60006040518083038185875af1925050503d8060008114614805576040519150601f19603f3d011682016040523d82523d6000602084013e61480a565b606091505b509150915061481b87838387614826565b979650505050505050565b606083156148bc5782516000036148b55773ffffffffffffffffffffffffffffffffffffffff85163b6148b5576040517f08c379a000000000000000000000000000000000000000000000000000000000815260206004820152601d60248201527f416464726573733a2063616c6c20746f206e6f6e2d636f6e7472616374000000604482015260640161068c565b508161077b565b61077b83836137db565b6040518060600160405280606081526020016060815260200161490a6040518060800160405280606081526020016060815260200160608152602001606081525090565b905290565b7fffffffff00000000000000000000000000000000000000000000000000000000811681146113f757600080fd5b60006020828403121561494f57600080fd5b8135610f738161490f565b60005b8381101561497557818101518382015260200161495d565b50506000910152565b6000815180845261499681602086016020860161495a565b601f017fffffffffffffffffffffffffffffffffffffffffffffffffffffffffffffffe0169290920160200192915050565b602081526000610f73602083018461497e565b6000602082840312156149ed57600080fd5b5035919050565b73ffffffffffffffffffffffffffffffffffffffff811681146113f757600080fd5b60008060408385031215614a2957600080fd5b8235614a34816149f4565b946020939093013593505050565b7f4e487b7100000000000000000000000000000000000000000000000000000000600052604160045260246000fd5b6040516060810167ffffffffffffffff81118282101715614a9457614a94614a42565b60405290565b60405160a0810167ffffffffffffffff81118282101715614a9457614a94614a42565b604051601f82017fffffffffffffffffffffffffffffffffffffffffffffffffffffffffffffffe016810167ffffffffffffffff81118282101715614b0457614b04614a42565b604052919050565b600082601f830112614b1d57600080fd5b813567ffffffffffffffff811115614b3757614b37614a42565b614b6860207fffffffffffffffffffffffffffffffffffffffffffffffffffffffffffffffe0601f84011601614abd565b818152846020838601011115614b7d57600080fd5b816020850160208301376000918101602001919091529392505050565b60008060008060808587031215614bb057600080fd5b8435614bbb816149f4565b93506020850135614bcb816149f4565b925060408501359150606085013567ffffffffffffffff811115614bee57600080fd5b614bfa87828801614b0c565b91505092959194509250565b600080600060608486031215614c1b57600080fd5b8335614c26816149f4565b92506020840135614c36816149f4565b929592945050506040919091013590565b60008060208385031215614c5a57600080fd5b823567ffffffffffffffff80821115614c7257600080fd5b818501915085601f830112614c8657600080fd5b813581811115614c9557600080fd5b866020828501011115614ca757600080fd5b60209290920196919550909350505050565b600060208284031215614ccb57600080fd5b8135610f73816149f4565b80151581146113f757600080fd5b60008060408385031215614cf757600080fd5b8235614d02816149f4565b91506020830135614d1281614cd6565b809150509250929050565b60008060208385031215614d3057600080fd5b823567ffffffffffffffff80821115614d4857600080fd5b818501915085601f830112614d5c57600080fd5b813581811115614d6b57600080fd5b8660208260051b8501011115614ca757600080fd5b600081518084526020808501808196508360051b8101915082860160005b85811015614dc8578284038952614db684835161497e565b98850198935090840190600101614d9e565b5091979650505050505050565b602081526000610f736020830184614d80565b600067ffffffffffffffff821115614e0257614e02614a42565b5060051b60200190565b600082601f830112614e1d57600080fd5b81356020614e32614e2d83614de8565b614abd565b82815260059290921b84018101918181019086841115614e5157600080fd5b8286015b8481101561118f5780358352918301918301614e55565b600080600080600060a08688031215614e8457600080fd5b8535614e8f816149f4565b94506020860135614e9f816149f4565b9350604086013567ffffffffffffffff80821115614ebc57600080fd5b614ec889838a01614e0c565b94506060880135915080821115614ede57600080fd5b614eea89838a01614e0c565b93506080880135915080821115614f0057600080fd5b50614f0d88828901614b0c565b9150509295509295909350565b600080600083850360a0811215614f3057600080fd5b6060811215614f3e57600080fd5b50614f47614a71565b8435614f52816149f4565b8152602085810135614f63816149f4565b828201526040860135614f75816149f4565b604083015290935060608501359067ffffffffffffffff80831115614f9957600080fd5b614fa588848901614e0c565b94506080870135925080831115614fbb57600080fd5b828701925087601f840112614fcf57600080fd5b8235614fdd614e2d82614de8565b81815260059190911b8401830190838101908a831115614ffc57600080fd5b8486015b838110156150bf578035858111156150185760008081fd5b87016060818e037fffffffffffffffffffffffffffffffffffffffffffffffffffffffffffffffe001121561504d5760008081fd5b615055614a71565b87820135615062816149f4565b81526040820135878111156150775760008081fd5b6150858f8a83860101614b0c565b898301525060608201358781111561509d5760008081fd5b6150ab8f8a83860101614e0c565b604083015250845250918501918501615000565b508096505050505050509250925092565b600081518084526020808501945080840160005b83811015615121578151805173ffffffffffffffffffffffffffffffffffffffff16885283015183880152604090960195908201906001016150e4565b509495945050505050565b600081518084526020808501945080840160005b83811015615121578151805173ffffffffffffffffffffffffffffffffffffffff9081168952848201518116858a0152604080830151909116908901526060908101519088015260809096019590820190600101615140565b600081518084526020808501945080840160005b83811015615121578151805173ffffffffffffffffffffffffffffffffffffffff9081168952848201518116858a015260408083015190911690890152606080820151908901526080908101519088015260a090960195908201906001016151ad565b6000602080835283516060808386015261522d60808601836150d0565b9150828601517fffffffffffffffffffffffffffffffffffffffffffffffffffffffffffffffe0604081888603018189015261526985846150d0565b89820151898203909301858a01528251608080835281519083018190529196509293509186019160009060a08701905b808310156152e3578451805173ffffffffffffffffffffffffffffffffffffffff90811684528a820151168a84015284015184830152938801936001929092019190860190615299565b50878501519350868103888801526152fb818561512c565b975050508083015191508486038186015250615317858261512c565b9450508181015190508284038284015261481b8482615199565b6000806040838503121561534457600080fd5b823561534f816149f4565b91506020830135614d12816149f4565b600080600080600060a0868803121561537757600080fd5b8535615382816149f4565b94506020860135615392816149f4565b93506040860135925060608601359150608086013567ffffffffffffffff8111156153bc57600080fd5b614f0d88828901614b0c565b600181811c908216806153dc57607f821691505b602082108103615415577f4e487b7100000000000000000000000000000000000000000000000000000000600052602260045260246000fd5b50919050565b60006060828403121561542d57600080fd5b615435614a71565b90508135615442816149f4565b815260208281013567ffffffffffffffff8082111561546057600080fd5b818501915085601f83011261547457600080fd5b8135615482614e2d82614de8565b81815260059190911b830184019084810190888311156154a157600080fd5b8585015b838110156154d9578035858111156154bd5760008081fd5b6154cb8b89838a0101614b0c565b8452509186019186016154a5565b50808688015250505060408501359250808311156154f657600080fd5b505061550484828501614e0c565b60408301525092915050565b600082601f83011261552157600080fd5b81356020615531614e2d83614de8565b82815260059290921b8401810191818101908684111561555057600080fd5b8286015b8481101561118f57803567ffffffffffffffff8111156155745760008081fd5b6155828986838b010161541b565b845250918301918301615554565b6000602082840312156155a257600080fd5b813567ffffffffffffffff808211156155ba57600080fd5b9083019060a082860312156155ce57600080fd5b6155d6614a9a565b8235828111156155e557600080fd5b6155f187828601614b0c565b82525060208301358281111561560657600080fd5b61561287828601614b0c565b60208301525060408301358281111561562a57600080fd5b61563687828601614b0c565b60408301525060608301358281111561564e57600080fd5b61565a8782860161541b565b60608301525060808301358281111561567257600080fd5b61567e87828601615510565b60808301525095945050505050565b600081518084526020808501945080840160005b83811015615121578151875295820195908201906001016156a1565b73ffffffffffffffffffffffffffffffffffffffff815116825260006020820151606060208501526156f26060850182614d80565b905060408301518482036040860152611f4b828261568d565b73ffffffffffffffffffffffffffffffffffffffff8316815260006020604081840152835160a0604085015261574460e085018261497e565b9050818501517fffffffffffffffffffffffffffffffffffffffffffffffffffffffffffffffc08086840301606087015261577f838361497e565b9250604087015191508086840301608087015261579c838361497e565b925060608701519150808684030160a08701526157b983836156bd565b608088015187820390920160c08801528151808252909350908401915083830190600581901b8401850160005b82811015615832577fffffffffffffffffffffffffffffffffffffffffffffffffffffffffffffffe08683030184526158208286516156bd565b948701949387019391506001016157e6565b509998505050505050505050565b601f82111561075457600081815260208120601f850160051c810160208610156158675750805b601f850160051c820191505b818110156129d257828155600101615873565b815167ffffffffffffffff8111156158a0576158a0614a42565b6158b4816158ae84546153c8565b84615840565b602080601f83116001811461590757600084156158d15750858301515b7fffffffffffffffffffffffffffffffffffffffffffffffffffffffffffffffff600386901b1c1916600185901b1785556129d2565b6000858152602081207fffffffffffffffffffffffffffffffffffffffffffffffffffffffffffffffe08616915b8281101561595457888601518255948401946001909101908401615935565b508582101561599057878501517fffffffffffffffffffffffffffffffffffffffffffffffffffffffffffffffff600388901b60f8161c191681555b5050505050600190811b01905550565b7f4e487b7100000000000000000000000000000000000000000000000000000000600052601160045260246000fd5b808201808211156104fa576104fa6159a0565b7f4e487b7100000000000000000000000000000000000000000000000000000000600052603260045260246000fd5b606081526000615a246060830186614d80565b8281036020840152615a36818661568d565b90508281036040840152615a4a818561568d565b9695505050505050565b600080600060608486031215615a6957600080fd5b8351615a74816149f4565b6020850151909350615a85816149f4565b6040850151909250615a96816149f4565b809150509250925092565b60008083357fffffffffffffffffffffffffffffffffffffffffffffffffffffffffffffffe1843603018112615ad657600080fd5b83018035915067ffffffffffffffff821115615af157600080fd5b60200191503681900382131561269857600080fd5b60007fffffffffffffffffffffffffffffffffffffffffffffffffffffffffffffffff8203615b3757615b376159a0565b5060010190565b600081518084526020808501808196508360051b8101915082860160005b85811015614dc8578284038952615b7484835161568d565b98850198935090840190600101615b5c565b73ffffffffffffffffffffffffffffffffffffffff85168152836020820152826040820152608060608201526000615a4a6080830184615b3e565b600082601f830112615bd257600080fd5b81516020615be2614e2d83614de8565b82815260059290921b84018101918181019086841115615c0157600080fd5b8286015b8481101561118f5780518352918301918301615c05565b60008060408385031215615c2f57600080fd5b825167ffffffffffffffff80821115615c4757600080fd5b615c5386838701615bc1565b93506020850151915080821115615c6957600080fd5b50615c7685828601615bc1565b9150509250929050565b60008251615c9281846020870161495a565b9190910192915050565b73ffffffffffffffffffffffffffffffffffffffff83168152604060208201526000610f706040830184615b3e565b815160009082906020808601845b83811015615cf557815185529382019390820190600101615cd9565b50929695505050505050565b60008351615d1381846020880161495a565b835190830190615d2781836020880161495a565b01949350505050565b828152604060208201526000610f70604083018461568d565b600073ffffffffffffffffffffffffffffffffffffffff808716835280861660208401525083604083015260806060830152615a4a608083018461497e565b600060208284031215615d9a57600080fd5b8151610f738161490f565b7f4e487b7100000000000000000000000000000000000000000000000000000000600052602160045260246000fd5b828152604060208201526000610f70604083018461497e565b600060208284031215615dff57600080fd5b5051919050565b600082615e3c577f4e487b7100000000000000000000000000000000000000000000000000000000600052601260045260246000fd5b500490565b600060208284031215615e5357600080fd5b8151610f7381614cd656fe416464726573733a206c6f772d6c6576656c2064656c65676174652063616c6c206661696c6564a2646970667358221220f0e0c61937982086c2b82142e3518fbda6e82175494e13515982870355db021a64736f6c63430008120033",
  "linkReferences": {},
  "deployedLinkReferences": {}
}