{
  "_format": "hh-sol-artifact-1",
  "contractName": "CloneFactory",
  "sourceName": "contracts/factory/CloneFactory.sol",
  "abi": [
    {
      "inputs": [
        {
          "components": [
            {
              "internalType": "address",
              "name": "deployer",
              "type": "address"
            },
            {
              "internalType": "bytes",
              "name": "meta",
              "type": "bytes"
            }
          ],
          "internalType": "struct DeployerDiscoverableMetaV1ConstructionConfig",
          "name": "config_",
          "type": "tuple"
        }
      ],
      "stateMutability": "nonpayable",
      "type": "constructor"
    },
    {
      "inputs": [
        {
          "internalType": "bytes",
          "name": "unmeta",
          "type": "bytes"
        }
      ],
      "name": "NotRainMetaV1",
      "type": "error"
    },
    {
      "inputs": [
        {
          "internalType": "bytes32",
          "name": "expectedHash",
          "type": "bytes32"
        },
        {
          "internalType": "bytes32",
          "name": "actualHash",
          "type": "bytes32"
        }
      ],
      "name": "UnexpectedMetaHash",
      "type": "error"
    },
    {
      "inputs": [],
      "name": "ZeroImplementation",
      "type": "error"
    },
    {
      "anonymous": false,
      "inputs": [
        {
          "indexed": false,
          "internalType": "address",
          "name": "sender",
          "type": "address"
        },
        {
          "indexed": false,
          "internalType": "uint256",
          "name": "subject",
          "type": "uint256"
        },
        {
          "indexed": false,
          "internalType": "bytes",
          "name": "meta",
          "type": "bytes"
        }
      ],
      "name": "MetaV1",
      "type": "event"
    },
    {
      "anonymous": false,
      "inputs": [
        {
          "indexed": false,
          "internalType": "address",
          "name": "sender",
          "type": "address"
        },
        {
          "indexed": false,
          "internalType": "address",
          "name": "implementation",
          "type": "address"
        },
        {
          "indexed": false,
          "internalType": "address",
          "name": "clone",
          "type": "address"
        }
      ],
      "name": "NewClone",
      "type": "event"
    },
    {
      "inputs": [
        {
          "internalType": "address",
          "name": "implementation_",
          "type": "address"
        },
        {
          "internalType": "bytes",
          "name": "data_",
          "type": "bytes"
        }
      ],
      "name": "clone",
      "outputs": [
        {
          "internalType": "address",
          "name": "",
          "type": "address"
        }
      ],
      "stateMutability": "nonpayable",
      "type": "function"
    }
  ],
  "bytecode": "0x60806040523480156200001157600080fd5b5060405162000c8638038062000c868339810160408190526200003491620002f3565b7fae0fb5b68fe1791c72509bf46ea6abf6a982d21451265be0a017f7959712a67e60001b8162000074828260200151620000d860201b620001af1760201c565b60208101516040517fbea766d03fa1efd3f81cc8634d08320bc62bb0ed9234ac59bbaafa5893fb6b1391620000ad913391309162000401565b60405180910390a1620000cf81600001516200011f60201b6200020c1760201c565b50505062000573565b805160208201208281146200010f5760405163074fe10f60e41b815260048101849052602481018290526044015b60405180910390fd5b6200011a82620001e3565b505050565b604080516000808252602082019092526001600160a01b03831691635511cb6791906200015d565b6060815260200190600190039081620001475790505b5060408051600080825260208201908152818301928390526001600160e01b031960e086901b169092526200019792916044820162000470565b6060604051808303816000875af1158015620001b7573d6000803e3d6000fd5b505050506040513d601f19601f82011682018060405250810190620001dd919062000503565b50505050565b620001ee8162000213565b620002105780604051630c89984b60e31b815260040162000106919062000557565b50565b60006008825110156200022857506000919050565b50600801516001600160401b031667ff0a89c674ee78741490565b634e487b7160e01b600052604160045260246000fd5b604080519081016001600160401b03811182821017156200027e576200027e62000243565b60405290565b604051601f8201601f191681016001600160401b0381118282101715620002af57620002af62000243565b604052919050565b6001600160a01b03811681146200021057600080fd5b60005b83811015620002ea578181015183820152602001620002d0565b50506000910152565b600060208083850312156200030757600080fd5b82516001600160401b03808211156200031f57600080fd5b90840190604082870312156200033457600080fd5b6200033e62000259565b82516200034b81620002b7565b815282840151828111156200035f57600080fd5b80840193505086601f8401126200037557600080fd5b8251828111156200038a576200038a62000243565b6200039e601f8201601f1916860162000284565b92508083528785828601011115620003b557600080fd5b620003c681868501878701620002cd565b5092830152509392505050565b60008151808452620003ed816020860160208601620002cd565b601f01601f19169290920160200192915050565b60018060a01b03841681528260208201526060604082015260006200042a6060830184620003d3565b95945050505050565b600081518084526020808501945080840160005b83811015620004655781518752958201959082019060010162000447565b509495945050505050565b6000606082016060835280865180835260808501915060808160051b8601019250602080890160005b83811015620004cb57607f19888703018552620004b8868351620003d3565b9550938201939082019060010162000499565b505085840381870152505050620004e3818662000433565b90508281036040840152620004f9818562000433565b9695505050505050565b6000806000606084860312156200051957600080fd5b83516200052681620002b7565b60208501519093506200053981620002b7565b60408501519092506200054c81620002b7565b809150509250925092565b6020815260006200056c6020830184620003d3565b9392505050565b61070380620005836000396000f3fe608060405234801561001057600080fd5b506004361061002b5760003560e01c80630fbe133c14610030575b600080fd5b61004361003e36600461044c565b61006c565b60405173ffffffffffffffffffffffffffffffffffffffff909116815260200160405180910390f35b600073ffffffffffffffffffffffffffffffffffffffff84166100bb576040517f4208d2eb00000000000000000000000000000000000000000000000000000000815260040160405180910390fd5b60006100c6856102ee565b6040805133815273ffffffffffffffffffffffffffffffffffffffff888116602083015283168183015290519192507f274b5f356634f32a865af65bdc3d8205939d9413d75e1f367652e4f3b24d0c3a919081900360600190a16040517f439fab9100000000000000000000000000000000000000000000000000000000815273ffffffffffffffffffffffffffffffffffffffff82169063439fab919061017490879087906004016104d1565b600060405180830381600087803b15801561018e57600080fd5b505af11580156101a2573d6000803e3d6000fd5b5092979650505050505050565b805160208201208281146101fe576040517f74fe10f000000000000000000000000000000000000000000000000000000000815260048101849052602481018290526044015b60405180910390fd5b610207826103b6565b505050565b6040805160008082526020820190925273ffffffffffffffffffffffffffffffffffffffff831691635511cb679190610255565b60608152602001906001900390816102405790505b5060408051600080825260208201908152818301928390527fffffffff0000000000000000000000000000000000000000000000000000000060e086901b169092526102a59291604482016105bd565b6060604051808303816000875af11580156102c4573d6000803e3d6000fd5b505050506040513d601f19601f820116820180604052508101906102e89190610666565b50505050565b6000763d602d80600a3d3981f3363d3d373d3d3d363d730000008260601b60e81c176000526e5af43d82803e903d91602b57fd5bf38260781b17602052603760096000f0905073ffffffffffffffffffffffffffffffffffffffff81166103b1576040517f08c379a000000000000000000000000000000000000000000000000000000000815260206004820152601660248201527f455243313136373a20637265617465206661696c65640000000000000000000060448201526064016101f5565b919050565b6103bf816103fa565b6103f757806040517f644cc2580000000000000000000000000000000000000000000000000000000081526004016101f591906106b3565b50565b600060088251101561040e57506000919050565b506008015167ffffffffffffffff1667ff0a89c674ee78741490565b73ffffffffffffffffffffffffffffffffffffffff811681146103f757600080fd5b60008060006040848603121561046157600080fd5b833561046c8161042a565b9250602084013567ffffffffffffffff8082111561048957600080fd5b818601915086601f83011261049d57600080fd5b8135818111156104ac57600080fd5b8760208285010111156104be57600080fd5b6020830194508093505050509250925092565b60208152816020820152818360408301376000818301604090810191909152601f9092017fffffffffffffffffffffffffffffffffffffffffffffffffffffffffffffffe0160101919050565b6000815180845260005b8181101561054457602081850181015186830182015201610528565b5060006020828601015260207fffffffffffffffffffffffffffffffffffffffffffffffffffffffffffffffe0601f83011685010191505092915050565b600081518084526020808501945080840160005b838110156105b257815187529582019590820190600101610596565b509495945050505050565b6000606082016060835280865180835260808501915060808160051b8601019250602080890160005b83811015610632577fffffffffffffffffffffffffffffffffffffffffffffffffffffffffffffff8088870301855261062086835161051e565b955093820193908201906001016105e6565b5050858403818701525050506106488186610582565b9050828103604084015261065c8185610582565b9695505050505050565b60008060006060848603121561067b57600080fd5b83516106868161042a565b60208501519093506106978161042a565b60408501519092506106a88161042a565b809150509250925092565b6020815260006106c6602083018461051e565b939250505056fea2646970667358221220bc13a30ed8456c76378615a5becabd59bc382410a92c6ab1a96f251f897006d264736f6c63430008120033",
  "linkReferences": {},
  "deployedLinkReferences": {}
}